{
  "contractName": "GameToken",
  "abi": [
    {
      "inputs": [
        {
          "internalType": "string",
          "name": "uri",
          "type": "string"
        }
      ],
      "stateMutability": "nonpayable",
      "type": "constructor"
    },
    {
      "anonymous": false,
      "inputs": [
        {
          "indexed": true,
          "internalType": "address",
          "name": "account",
          "type": "address"
        },
        {
          "indexed": true,
          "internalType": "address",
          "name": "operator",
          "type": "address"
        },
        {
          "indexed": false,
          "internalType": "bool",
          "name": "approved",
          "type": "bool"
        }
      ],
      "name": "ApprovalForAll",
      "type": "event"
    },
    {
      "anonymous": false,
      "inputs": [
        {
          "indexed": true,
          "internalType": "address",
          "name": "operator",
          "type": "address"
        },
        {
          "indexed": true,
          "internalType": "address",
          "name": "from",
          "type": "address"
        },
        {
          "indexed": true,
          "internalType": "address",
          "name": "to",
          "type": "address"
        },
        {
          "indexed": false,
          "internalType": "uint256[]",
          "name": "ids",
          "type": "uint256[]"
        },
        {
          "indexed": false,
          "internalType": "uint256[]",
          "name": "values",
          "type": "uint256[]"
        }
      ],
      "name": "TransferBatch",
      "type": "event"
    },
    {
      "anonymous": false,
      "inputs": [
        {
          "indexed": true,
          "internalType": "address",
          "name": "operator",
          "type": "address"
        },
        {
          "indexed": true,
          "internalType": "address",
          "name": "from",
          "type": "address"
        },
        {
          "indexed": true,
          "internalType": "address",
          "name": "to",
          "type": "address"
        },
        {
          "indexed": false,
          "internalType": "uint256",
          "name": "id",
          "type": "uint256"
        },
        {
          "indexed": false,
          "internalType": "uint256",
          "name": "value",
          "type": "uint256"
        }
      ],
      "name": "TransferSingle",
      "type": "event"
    },
    {
      "anonymous": false,
      "inputs": [
        {
          "indexed": false,
          "internalType": "string",
          "name": "value",
          "type": "string"
        },
        {
          "indexed": true,
          "internalType": "uint256",
          "name": "id",
          "type": "uint256"
        }
      ],
      "name": "URI",
      "type": "event"
    },
    {
      "inputs": [
        {
          "internalType": "address",
          "name": "account",
          "type": "address"
        },
        {
          "internalType": "uint256",
          "name": "id",
          "type": "uint256"
        }
      ],
      "name": "balanceOf",
      "outputs": [
        {
          "internalType": "uint256",
          "name": "",
          "type": "uint256"
        }
      ],
      "stateMutability": "view",
      "type": "function"
    },
    {
      "inputs": [
        {
          "internalType": "address[]",
          "name": "accounts",
          "type": "address[]"
        },
        {
          "internalType": "uint256[]",
          "name": "ids",
          "type": "uint256[]"
        }
      ],
      "name": "balanceOfBatch",
      "outputs": [
        {
          "internalType": "uint256[]",
          "name": "",
          "type": "uint256[]"
        }
      ],
      "stateMutability": "view",
      "type": "function"
    },
    {
      "inputs": [
        {
          "internalType": "address",
          "name": "account",
          "type": "address"
        },
        {
          "internalType": "address",
          "name": "operator",
          "type": "address"
        }
      ],
      "name": "isApprovedForAll",
      "outputs": [
        {
          "internalType": "bool",
          "name": "",
          "type": "bool"
        }
      ],
      "stateMutability": "view",
      "type": "function"
    },
    {
      "inputs": [
        {
          "internalType": "address",
          "name": "from",
          "type": "address"
        },
        {
          "internalType": "address",
          "name": "to",
          "type": "address"
        },
        {
          "internalType": "uint256[]",
          "name": "ids",
          "type": "uint256[]"
        },
        {
          "internalType": "uint256[]",
          "name": "amounts",
          "type": "uint256[]"
        },
        {
          "internalType": "bytes",
          "name": "data",
          "type": "bytes"
        }
      ],
      "name": "safeBatchTransferFrom",
      "outputs": [],
      "stateMutability": "nonpayable",
      "type": "function"
    },
    {
      "inputs": [
        {
          "internalType": "address",
          "name": "from",
          "type": "address"
        },
        {
          "internalType": "address",
          "name": "to",
          "type": "address"
        },
        {
          "internalType": "uint256",
          "name": "id",
          "type": "uint256"
        },
        {
          "internalType": "uint256",
          "name": "amount",
          "type": "uint256"
        },
        {
          "internalType": "bytes",
          "name": "data",
          "type": "bytes"
        }
      ],
      "name": "safeTransferFrom",
      "outputs": [],
      "stateMutability": "nonpayable",
      "type": "function"
    },
    {
      "inputs": [
        {
          "internalType": "address",
          "name": "operator",
          "type": "address"
        },
        {
          "internalType": "bool",
          "name": "approved",
          "type": "bool"
        }
      ],
      "name": "setApprovalForAll",
      "outputs": [],
      "stateMutability": "nonpayable",
      "type": "function"
    },
    {
      "inputs": [
        {
          "internalType": "bytes4",
          "name": "interfaceId",
          "type": "bytes4"
        }
      ],
      "name": "supportsInterface",
      "outputs": [
        {
          "internalType": "bool",
          "name": "",
          "type": "bool"
        }
      ],
      "stateMutability": "view",
      "type": "function"
    },
    {
      "inputs": [
        {
          "internalType": "uint256",
          "name": "",
          "type": "uint256"
        }
      ],
      "name": "uri",
      "outputs": [
        {
          "internalType": "string",
          "name": "",
          "type": "string"
        }
      ],
      "stateMutability": "view",
      "type": "function"
    },
    {
      "inputs": [
        {
          "internalType": "address",
          "name": "to",
          "type": "address"
        },
        {
          "internalType": "uint256",
          "name": "id",
          "type": "uint256"
        },
        {
          "internalType": "uint256",
          "name": "amount",
          "type": "uint256"
        }
      ],
      "name": "mint",
      "outputs": [
        {
          "internalType": "bool",
          "name": "",
          "type": "bool"
        }
      ],
      "stateMutability": "nonpayable",
      "type": "function"
    }
  ],
  "bytecode": "0x60806040523480156200001157600080fd5b5060405162002b9938038062002b998339818101604052810190620000379190620002ba565b8062000049816200005160201b60201c565b50506200036f565b8060029080519060200190620000699291906200006d565b5050565b8280546200007b906200033a565b90600052602060002090601f0160209004810192826200009f5760008555620000eb565b82601f10620000ba57805160ff1916838001178555620000eb565b82800160010185558215620000eb579182015b82811115620000ea578251825591602001919060010190620000cd565b5b509050620000fa9190620000fe565b5090565b5b8082111562000119576000816000905550600101620000ff565b5090565b6000604051905090565b600080fd5b600080fd5b600080fd5b600080fd5b6000601f19601f8301169050919050565b7f4e487b7100000000000000000000000000000000000000000000000000000000600052604160045260246000fd5b62000186826200013b565b810181811067ffffffffffffffff82111715620001a857620001a76200014c565b5b80604052505050565b6000620001bd6200011d565b9050620001cb82826200017b565b919050565b600067ffffffffffffffff821115620001ee57620001ed6200014c565b5b620001f9826200013b565b9050602081019050919050565b60005b838110156200022657808201518184015260208101905062000209565b8381111562000236576000848401525b50505050565b6000620002536200024d84620001d0565b620001b1565b90508281526020810184848401111562000272576200027162000136565b5b6200027f84828562000206565b509392505050565b600082601f8301126200029f576200029e62000131565b5b8151620002b18482602086016200023c565b91505092915050565b600060208284031215620002d357620002d262000127565b5b600082015167ffffffffffffffff811115620002f457620002f36200012c565b5b620003028482850162000287565b91505092915050565b7f4e487b7100000000000000000000000000000000000000000000000000000000600052602260045260246000fd5b600060028204905060018216806200035357607f821691505b6020821081036200036957620003686200030b565b5b50919050565b61281a806200037f6000396000f3fe608060405234801561001057600080fd5b50600436106100925760003560e01c80632eb2c2d6116100665780632eb2c2d6146101575780634e1273f414610173578063a22cb465146101a3578063e985e9c5146101bf578063f242432a146101ef57610092565b8062fdd58e1461009757806301ffc9a7146100c75780630e89341c146100f7578063156e29f614610127575b600080fd5b6100b160048036038101906100ac91906115c3565b61020b565b6040516100be9190611612565b60405180910390f35b6100e160048036038101906100dc9190611685565b6102d3565b6040516100ee91906116cd565b60405180910390f35b610111600480360381019061010c91906116e8565b6103b5565b60405161011e91906117ae565b60405180910390f35b610141600480360381019061013c91906117d0565b610449565b60405161014e91906116cd565b60405180910390f35b610171600480360381019061016c9190611a20565b610471565b005b61018d60048036038101906101889190611bb2565b610512565b60405161019a9190611ce8565b60405180910390f35b6101bd60048036038101906101b89190611d36565b61062b565b005b6101d960048036038101906101d49190611d76565b610641565b6040516101e691906116cd565b60405180910390f35b61020960048036038101906102049190611db6565b6106d5565b005b60008073ffffffffffffffffffffffffffffffffffffffff168373ffffffffffffffffffffffffffffffffffffffff160361027b576040517f08c379a000000000000000000000000000000000000000000000000000000000815260040161027290611ebf565b60405180910390fd5b60008083815260200190815260200160002060008473ffffffffffffffffffffffffffffffffffffffff1673ffffffffffffffffffffffffffffffffffffffff16815260200190815260200160002054905092915050565b60007fd9b67a26000000000000000000000000000000000000000000000000000000007bffffffffffffffffffffffffffffffffffffffffffffffffffffffff1916827bffffffffffffffffffffffffffffffffffffffffffffffffffffffff1916148061039e57507f0e89341c000000000000000000000000000000000000000000000000000000007bffffffffffffffffffffffffffffffffffffffffffffffffffffffff1916827bffffffffffffffffffffffffffffffffffffffffffffffffffffffff1916145b806103ae57506103ad82610776565b5b9050919050565b6060600280546103c490611f0e565b80601f01602080910402602001604051908101604052809291908181526020018280546103f090611f0e565b801561043d5780601f106104125761010080835404028352916020019161043d565b820191906000526020600020905b81548152906001019060200180831161042057829003601f168201915b50505050509050919050565b6000610466848484604051806020016040528060008152506107e0565b600190509392505050565b610479610990565b73ffffffffffffffffffffffffffffffffffffffff168573ffffffffffffffffffffffffffffffffffffffff1614806104bf57506104be856104b9610990565b610641565b5b6104fe576040517f08c379a00000000000000000000000000000000000000000000000000000000081526004016104f590611fb1565b60405180910390fd5b61050b8585858585610998565b5050505050565b60608151835114610558576040517f08c379a000000000000000000000000000000000000000000000000000000000815260040161054f90612043565b60405180910390fd5b6000835167ffffffffffffffff81111561057557610574611828565b5b6040519080825280602002602001820160405280156105a35781602001602082028036833780820191505090505b50905060005b8451811015610620576105f08582815181106105c8576105c7612063565b5b60200260200101518583815181106105e3576105e2612063565b5b602002602001015161020b565b82828151811061060357610602612063565b5b60200260200101818152505080610619906120c1565b90506105a9565b508091505092915050565b61063d610636610990565b8383610cb9565b5050565b6000600160008473ffffffffffffffffffffffffffffffffffffffff1673ffffffffffffffffffffffffffffffffffffffff16815260200190815260200160002060008373ffffffffffffffffffffffffffffffffffffffff1673ffffffffffffffffffffffffffffffffffffffff16815260200190815260200160002060009054906101000a900460ff16905092915050565b6106dd610990565b73ffffffffffffffffffffffffffffffffffffffff168573ffffffffffffffffffffffffffffffffffffffff16148061072357506107228561071d610990565b610641565b5b610762576040517f08c379a000000000000000000000000000000000000000000000000000000000815260040161075990611fb1565b60405180910390fd5b61076f8585858585610e25565b5050505050565b60007f01ffc9a7000000000000000000000000000000000000000000000000000000007bffffffffffffffffffffffffffffffffffffffffffffffffffffffff1916827bffffffffffffffffffffffffffffffffffffffffffffffffffffffff1916149050919050565b600073ffffffffffffffffffffffffffffffffffffffff168473ffffffffffffffffffffffffffffffffffffffff160361084f576040517f08c379a00000000000000000000000000000000000000000000000000000000081526004016108469061217b565b60405180910390fd5b6000610859610990565b90506000610866856110c0565b90506000610873856110c0565b90506108848360008985858961113a565b8460008088815260200190815260200160002060008973ffffffffffffffffffffffffffffffffffffffff1673ffffffffffffffffffffffffffffffffffffffff16815260200190815260200160002060008282546108e3919061219b565b925050819055508673ffffffffffffffffffffffffffffffffffffffff16600073ffffffffffffffffffffffffffffffffffffffff168473ffffffffffffffffffffffffffffffffffffffff167fc3d58168c5ae7397731d063d5bbf3d657854427343f4c083240f7aacaa2d0f6289896040516109619291906121f1565b60405180910390a461097883600089858589611142565b6109878360008989898961114a565b50505050505050565b600033905090565b81518351146109dc576040517f08c379a00000000000000000000000000000000000000000000000000000000081526004016109d39061228c565b60405180910390fd5b600073ffffffffffffffffffffffffffffffffffffffff168473ffffffffffffffffffffffffffffffffffffffff1603610a4b576040517f08c379a0000000000000000000000000000000000000000000000000000000008152600401610a429061231e565b60405180910390fd5b6000610a55610990565b9050610a6581878787878761113a565b60005b8451811015610c16576000858281518110610a8657610a85612063565b5b602002602001015190506000858381518110610aa557610aa4612063565b5b60200260200101519050600080600084815260200190815260200160002060008b73ffffffffffffffffffffffffffffffffffffffff1673ffffffffffffffffffffffffffffffffffffffff16815260200190815260200160002054905081811015610b46576040517f08c379a0000000000000000000000000000000000000000000000000000000008152600401610b3d906123b0565b60405180910390fd5b81810360008085815260200190815260200160002060008c73ffffffffffffffffffffffffffffffffffffffff1673ffffffffffffffffffffffffffffffffffffffff168152602001908152602001600020819055508160008085815260200190815260200160002060008b73ffffffffffffffffffffffffffffffffffffffff1673ffffffffffffffffffffffffffffffffffffffff1681526020019081526020016000206000828254610bfb919061219b565b9250508190555050505080610c0f906120c1565b9050610a68565b508473ffffffffffffffffffffffffffffffffffffffff168673ffffffffffffffffffffffffffffffffffffffff168273ffffffffffffffffffffffffffffffffffffffff167f4a39dc06d4c0dbc64b70af90fd698a233a518aa5d07e595d983b8c0526c8f7fb8787604051610c8d9291906123d0565b60405180910390a4610ca3818787878787611142565b610cb1818787878787611321565b505050505050565b8173ffffffffffffffffffffffffffffffffffffffff168373ffffffffffffffffffffffffffffffffffffffff1603610d27576040517f08c379a0000000000000000000000000000000000000000000000000000000008152600401610d1e90612479565b60405180910390fd5b80600160008573ffffffffffffffffffffffffffffffffffffffff1673ffffffffffffffffffffffffffffffffffffffff16815260200190815260200160002060008473ffffffffffffffffffffffffffffffffffffffff1673ffffffffffffffffffffffffffffffffffffffff16815260200190815260200160002060006101000a81548160ff0219169083151502179055508173ffffffffffffffffffffffffffffffffffffffff168373ffffffffffffffffffffffffffffffffffffffff167f17307eab39ab6107e8899845ad3d59bd9653f200f220920489ca2b5937696c3183604051610e1891906116cd565b60405180910390a3505050565b600073ffffffffffffffffffffffffffffffffffffffff168473ffffffffffffffffffffffffffffffffffffffff1603610e94576040517f08c379a0000000000000000000000000000000000000000000000000000000008152600401610e8b9061231e565b60405180910390fd5b6000610e9e610990565b90506000610eab856110c0565b90506000610eb8856110c0565b9050610ec883898985858961113a565b600080600088815260200190815260200160002060008a73ffffffffffffffffffffffffffffffffffffffff1673ffffffffffffffffffffffffffffffffffffffff16815260200190815260200160002054905085811015610f5f576040517f08c379a0000000000000000000000000000000000000000000000000000000008152600401610f56906123b0565b60405180910390fd5b85810360008089815260200190815260200160002060008b73ffffffffffffffffffffffffffffffffffffffff1673ffffffffffffffffffffffffffffffffffffffff168152602001908152602001600020819055508560008089815260200190815260200160002060008a73ffffffffffffffffffffffffffffffffffffffff1673ffffffffffffffffffffffffffffffffffffffff1681526020019081526020016000206000828254611014919061219b565b925050819055508773ffffffffffffffffffffffffffffffffffffffff168973ffffffffffffffffffffffffffffffffffffffff168573ffffffffffffffffffffffffffffffffffffffff167fc3d58168c5ae7397731d063d5bbf3d657854427343f4c083240f7aacaa2d0f628a8a6040516110919291906121f1565b60405180910390a46110a7848a8a86868a611142565b6110b5848a8a8a8a8a61114a565b505050505050505050565b60606000600167ffffffffffffffff8111156110df576110de611828565b5b60405190808252806020026020018201604052801561110d5781602001602082028036833780820191505090505b509050828160008151811061112557611124612063565b5b60200260200101818152505080915050919050565b505050505050565b505050505050565b6111698473ffffffffffffffffffffffffffffffffffffffff166114f8565b15611319578373ffffffffffffffffffffffffffffffffffffffff1663f23a6e6187878686866040518663ffffffff1660e01b81526004016111af9594939291906124fd565b6020604051808303816000875af19250505080156111eb57506040513d601f19601f820116820180604052508101906111e8919061256c565b60015b611290576111f76125a6565b806308c379a003611253575061120b6125c8565b806112165750611255565b806040517f08c379a000000000000000000000000000000000000000000000000000000000815260040161124a91906117ae565b60405180910390fd5b505b6040517f08c379a0000000000000000000000000000000000000000000000000000000008152600401611287906126ca565b60405180910390fd5b63f23a6e6160e01b7bffffffffffffffffffffffffffffffffffffffffffffffffffffffff1916817bffffffffffffffffffffffffffffffffffffffffffffffffffffffff191614611317576040517f08c379a000000000000000000000000000000000000000000000000000000000815260040161130e9061275c565b60405180910390fd5b505b505050505050565b6113408473ffffffffffffffffffffffffffffffffffffffff166114f8565b156114f0578373ffffffffffffffffffffffffffffffffffffffff1663bc197c8187878686866040518663ffffffff1660e01b815260040161138695949392919061277c565b6020604051808303816000875af19250505080156113c257506040513d601f19601f820116820180604052508101906113bf919061256c565b60015b611467576113ce6125a6565b806308c379a00361142a57506113e26125c8565b806113ed575061142c565b806040517f08c379a000000000000000000000000000000000000000000000000000000000815260040161142191906117ae565b60405180910390fd5b505b6040517f08c379a000000000000000000000000000000000000000000000000000000000815260040161145e906126ca565b60405180910390fd5b63bc197c8160e01b7bffffffffffffffffffffffffffffffffffffffffffffffffffffffff1916817bffffffffffffffffffffffffffffffffffffffffffffffffffffffff1916146114ee576040517f08c379a00000000000000000000000000000000000000000000000000000000081526004016114e59061275c565b60405180910390fd5b505b505050505050565b6000808273ffffffffffffffffffffffffffffffffffffffff163b119050919050565b6000604051905090565b600080fd5b600080fd5b600073ffffffffffffffffffffffffffffffffffffffff82169050919050565b600061155a8261152f565b9050919050565b61156a8161154f565b811461157557600080fd5b50565b60008135905061158781611561565b92915050565b6000819050919050565b6115a08161158d565b81146115ab57600080fd5b50565b6000813590506115bd81611597565b92915050565b600080604083850312156115da576115d9611525565b5b60006115e885828601611578565b92505060206115f9858286016115ae565b9150509250929050565b61160c8161158d565b82525050565b60006020820190506116276000830184611603565b92915050565b60007fffffffff0000000000000000000000000000000000000000000000000000000082169050919050565b6116628161162d565b811461166d57600080fd5b50565b60008135905061167f81611659565b92915050565b60006020828403121561169b5761169a611525565b5b60006116a984828501611670565b91505092915050565b60008115159050919050565b6116c7816116b2565b82525050565b60006020820190506116e260008301846116be565b92915050565b6000602082840312156116fe576116fd611525565b5b600061170c848285016115ae565b91505092915050565b600081519050919050565b600082825260208201905092915050565b60005b8381101561174f578082015181840152602081019050611734565b8381111561175e576000848401525b50505050565b6000601f19601f8301169050919050565b600061178082611715565b61178a8185611720565b935061179a818560208601611731565b6117a381611764565b840191505092915050565b600060208201905081810360008301526117c88184611775565b905092915050565b6000806000606084860312156117e9576117e8611525565b5b60006117f786828701611578565b9350506020611808868287016115ae565b9250506040611819868287016115ae565b9150509250925092565b600080fd5b7f4e487b7100000000000000000000000000000000000000000000000000000000600052604160045260246000fd5b61186082611764565b810181811067ffffffffffffffff8211171561187f5761187e611828565b5b80604052505050565b600061189261151b565b905061189e8282611857565b919050565b600067ffffffffffffffff8211156118be576118bd611828565b5b602082029050602081019050919050565b600080fd5b60006118e76118e2846118a3565b611888565b9050808382526020820190506020840283018581111561190a576119096118cf565b5b835b81811015611933578061191f88826115ae565b84526020840193505060208101905061190c565b5050509392505050565b600082601f83011261195257611951611823565b5b81356119628482602086016118d4565b91505092915050565b600080fd5b600067ffffffffffffffff82111561198b5761198a611828565b5b61199482611764565b9050602081019050919050565b82818337600083830152505050565b60006119c36119be84611970565b611888565b9050828152602081018484840111156119df576119de61196b565b5b6119ea8482856119a1565b509392505050565b600082601f830112611a0757611a06611823565b5b8135611a178482602086016119b0565b91505092915050565b600080600080600060a08688031215611a3c57611a3b611525565b5b6000611a4a88828901611578565b9550506020611a5b88828901611578565b945050604086013567ffffffffffffffff811115611a7c57611a7b61152a565b5b611a888882890161193d565b935050606086013567ffffffffffffffff811115611aa957611aa861152a565b5b611ab58882890161193d565b925050608086013567ffffffffffffffff811115611ad657611ad561152a565b5b611ae2888289016119f2565b9150509295509295909350565b600067ffffffffffffffff821115611b0a57611b09611828565b5b602082029050602081019050919050565b6000611b2e611b2984611aef565b611888565b90508083825260208201905060208402830185811115611b5157611b506118cf565b5b835b81811015611b7a5780611b668882611578565b845260208401935050602081019050611b53565b5050509392505050565b600082601f830112611b9957611b98611823565b5b8135611ba9848260208601611b1b565b91505092915050565b60008060408385031215611bc957611bc8611525565b5b600083013567ffffffffffffffff811115611be757611be661152a565b5b611bf385828601611b84565b925050602083013567ffffffffffffffff811115611c1457611c1361152a565b5b611c208582860161193d565b9150509250929050565b600081519050919050565b600082825260208201905092915050565b6000819050602082019050919050565b611c5f8161158d565b82525050565b6000611c718383611c56565b60208301905092915050565b6000602082019050919050565b6000611c9582611c2a565b611c9f8185611c35565b9350611caa83611c46565b8060005b83811015611cdb578151611cc28882611c65565b9750611ccd83611c7d565b925050600181019050611cae565b5085935050505092915050565b60006020820190508181036000830152611d028184611c8a565b905092915050565b611d13816116b2565b8114611d1e57600080fd5b50565b600081359050611d3081611d0a565b92915050565b60008060408385031215611d4d57611d4c611525565b5b6000611d5b85828601611578565b9250506020611d6c85828601611d21565b9150509250929050565b60008060408385031215611d8d57611d8c611525565b5b6000611d9b85828601611578565b9250506020611dac85828601611578565b9150509250929050565b600080600080600060a08688031215611dd257611dd1611525565b5b6000611de088828901611578565b9550506020611df188828901611578565b9450506040611e02888289016115ae565b9350506060611e13888289016115ae565b925050608086013567ffffffffffffffff811115611e3457611e3361152a565b5b611e40888289016119f2565b9150509295509295909350565b7f455243313135353a2061646472657373207a65726f206973206e6f742061207660008201527f616c6964206f776e657200000000000000000000000000000000000000000000602082015250565b6000611ea9602a83611720565b9150611eb482611e4d565b604082019050919050565b60006020820190508181036000830152611ed881611e9c565b9050919050565b7f4e487b7100000000000000000000000000000000000000000000000000000000600052602260045260246000fd5b60006002820490506001821680611f2657607f821691505b602082108103611f3957611f38611edf565b5b50919050565b7f455243313135353a2063616c6c6572206973206e6f7420746f6b656e206f776e60008201527f6572206f7220617070726f766564000000000000000000000000000000000000602082015250565b6000611f9b602e83611720565b9150611fa682611f3f565b604082019050919050565b60006020820190508181036000830152611fca81611f8e565b9050919050565b7f455243313135353a206163636f756e747320616e6420696473206c656e67746860008201527f206d69736d617463680000000000000000000000000000000000000000000000602082015250565b600061202d602983611720565b915061203882611fd1565b604082019050919050565b6000602082019050818103600083015261205c81612020565b9050919050565b7f4e487b7100000000000000000000000000000000000000000000000000000000600052603260045260246000fd5b7f4e487b7100000000000000000000000000000000000000000000000000000000600052601160045260246000fd5b60006120cc8261158d565b91507fffffffffffffffffffffffffffffffffffffffffffffffffffffffffffffffff82036120fe576120fd612092565b5b600182019050919050565b7f455243313135353a206d696e7420746f20746865207a65726f2061646472657360008201527f7300000000000000000000000000000000000000000000000000000000000000602082015250565b6000612165602183611720565b915061217082612109565b604082019050919050565b6000602082019050818103600083015261219481612158565b9050919050565b60006121a68261158d565b91506121b18361158d565b9250827fffffffffffffffffffffffffffffffffffffffffffffffffffffffffffffffff038211156121e6576121e5612092565b5b828201905092915050565b60006040820190506122066000830185611603565b6122136020830184611603565b9392505050565b7f455243313135353a2069647320616e6420616d6f756e7473206c656e6774682060008201527f6d69736d61746368000000000000000000000000000000000000000000000000602082015250565b6000612276602883611720565b91506122818261221a565b604082019050919050565b600060208201905081810360008301526122a581612269565b9050919050565b7f455243313135353a207472616e7366657220746f20746865207a65726f20616460008201527f6472657373000000000000000000000000000000000000000000000000000000602082015250565b6000612308602583611720565b9150612313826122ac565b604082019050919050565b60006020820190508181036000830152612337816122fb565b9050919050565b7f455243313135353a20696e73756666696369656e742062616c616e636520666f60008201527f72207472616e7366657200000000000000000000000000000000000000000000602082015250565b600061239a602a83611720565b91506123a58261233e565b604082019050919050565b600060208201905081810360008301526123c98161238d565b9050919050565b600060408201905081810360008301526123ea8185611c8a565b905081810360208301526123fe8184611c8a565b90509392505050565b7f455243313135353a2073657474696e6720617070726f76616c2073746174757360008201527f20666f722073656c660000000000000000000000000000000000000000000000602082015250565b6000612463602983611720565b915061246e82612407565b604082019050919050565b6000602082019050818103600083015261249281612456565b9050919050565b6124a28161154f565b82525050565b600081519050919050565b600082825260208201905092915050565b60006124cf826124a8565b6124d981856124b3565b93506124e9818560208601611731565b6124f281611764565b840191505092915050565b600060a0820190506125126000830188612499565b61251f6020830187612499565b61252c6040830186611603565b6125396060830185611603565b818103608083015261254b81846124c4565b90509695505050505050565b60008151905061256681611659565b92915050565b60006020828403121561258257612581611525565b5b600061259084828501612557565b91505092915050565b60008160e01c9050919050565b600060033d11156125c55760046000803e6125c2600051612599565b90505b90565b600060443d10612655576125da61151b565b60043d036004823e80513d602482011167ffffffffffffffff82111715612602575050612655565b808201805167ffffffffffffffff8111156126205750505050612655565b80602083010160043d03850181111561263d575050505050612655565b61264c82602001850186611857565b82955050505050505b90565b7f455243313135353a207472616e7366657220746f206e6f6e2d4552433131353560008201527f526563656976657220696d706c656d656e746572000000000000000000000000602082015250565b60006126b4603483611720565b91506126bf82612658565b604082019050919050565b600060208201905081810360008301526126e3816126a7565b9050919050565b7f455243313135353a204552433131353552656365697665722072656a6563746560008201527f6420746f6b656e73000000000000000000000000000000000000000000000000602082015250565b6000612746602883611720565b9150612751826126ea565b604082019050919050565b6000602082019050818103600083015261277581612739565b9050919050565b600060a0820190506127916000830188612499565b61279e6020830187612499565b81810360408301526127b08186611c8a565b905081810360608301526127c48185611c8a565b905081810360808301526127d881846124c4565b9050969550505050505056fea26469706673582212208a3c56faa97783041629e6ae33850e05033378d65e5891c3435a632310c59d3364736f6c634300080d0033",
  "immutableReferences": {},
  "source": "// SPDX-License-Identifier: MIT\r\npragma solidity >=0.4.22 <0.9.0;\r\n\r\nimport \"../node_modules/@openzeppelin/contracts/token/ERC1155/ERC1155.sol\";\r\n\r\ncontract GameToken is ERC1155 {\r\n\r\n    constructor(string memory uri) ERC1155(uri){\r\n\r\n    }\r\n\r\n    /**\r\n    * @dev Creates `amount` tokens of token type `id`, and assigns them to `to`.\r\n    * Calls {_mint} to handle minting.\r\n    */\r\n    function mint(address to, uint256 id, uint256 amount) public returns (bool) {\r\n        _mint(to, id, amount, \"\");\r\n        return true;\r\n    }\r\n}",
  "sourcePath": "C:\\Users\\Admin\\Webdev\\eth_game\\contracts\\GameToken.sol",
  "compiler": {
    "name": "solc",
    "version": "0.8.13+commit.abaa5c0e.Emscripten.clang"
  },
  "schemaVersion": "3.4.7",
  "updatedAt": "2022-12-15T13:10:40.140Z",
  "devdoc": {
    "kind": "dev",
    "methods": {
      "balanceOf(address,uint256)": {
        "details": "See {IERC1155-balanceOf}. Requirements: - `account` cannot be the zero address."
      },
      "balanceOfBatch(address[],uint256[])": {
        "details": "See {IERC1155-balanceOfBatch}. Requirements: - `accounts` and `ids` must have the same length."
      },
      "isApprovedForAll(address,address)": {
        "details": "See {IERC1155-isApprovedForAll}."
      },
      "mint(address,uint256,uint256)": {
        "details": "Creates `amount` tokens of token type `id`, and assigns them to `to`. Calls {_mint} to handle minting."
      },
      "safeBatchTransferFrom(address,address,uint256[],uint256[],bytes)": {
        "details": "See {IERC1155-safeBatchTransferFrom}."
      },
      "safeTransferFrom(address,address,uint256,uint256,bytes)": {
        "details": "See {IERC1155-safeTransferFrom}."
      },
      "setApprovalForAll(address,bool)": {
        "details": "See {IERC1155-setApprovalForAll}."
      },
      "supportsInterface(bytes4)": {
        "details": "See {IERC165-supportsInterface}."
      },
      "uri(uint256)": {
        "details": "See {IERC1155MetadataURI-uri}. This implementation returns the same URI for *all* token types. It relies on the token type ID substitution mechanism https://eips.ethereum.org/EIPS/eip-1155#metadata[defined in the EIP]. Clients calling this function must replace the `\\{id\\}` substring with the actual token type ID."
      }
    },
    "version": 1
  },
  "userdoc": {
    "kind": "user",
    "methods": {},
    "version": 1
  }
}