{
  "contractName": "Marketplace",
  "abi": [
    {
      "inputs": [
        {
          "internalType": "contract IERC1155",
          "name": "token",
          "type": "address"
        }
      ],
      "stateMutability": "nonpayable",
      "type": "constructor"
    },
    {
      "stateMutability": "payable",
      "type": "fallback"
    },
    {
      "inputs": [
        {
          "internalType": "uint256",
          "name": "tokenId",
          "type": "uint256"
        }
      ],
      "name": "buyToken",
      "outputs": [],
      "stateMutability": "payable",
      "type": "function"
    },
    {
      "inputs": [
        {
          "internalType": "address",
          "name": "_operator",
          "type": "address"
        },
        {
          "internalType": "address",
          "name": "_from",
          "type": "address"
        },
        {
          "internalType": "uint256",
          "name": "_id",
          "type": "uint256"
        },
        {
          "internalType": "uint256",
          "name": "_value",
          "type": "uint256"
        },
        {
          "internalType": "bytes",
          "name": "_data",
          "type": "bytes"
        }
      ],
      "name": "onERC1155Received",
      "outputs": [
        {
          "internalType": "bytes4",
          "name": "",
          "type": "bytes4"
        }
      ],
      "stateMutability": "nonpayable",
      "type": "function"
    }
  ],
  "bytecode": "0x608060405234801561001057600080fd5b506040516106a53803806106a583398181016040528101906100329190610184565b600073ffffffffffffffffffffffffffffffffffffffff168173ffffffffffffffffffffffffffffffffffffffff160361006b57600080fd5b806000806101000a81548173ffffffffffffffffffffffffffffffffffffffff021916908373ffffffffffffffffffffffffffffffffffffffff160217905550655af3107a400060016000600181526020019081526020016000208190555065b5e620f48000600160006002815260200190815260200160002081905550660110d9316ec000600160006003815260200190815260200160002081905550506101b1565b600080fd5b600073ffffffffffffffffffffffffffffffffffffffff82169050919050565b600061013f82610114565b9050919050565b600061015182610134565b9050919050565b61016181610146565b811461016c57600080fd5b50565b60008151905061017e81610158565b92915050565b60006020828403121561019a5761019961010f565b5b60006101a88482850161016f565b91505092915050565b6104e5806101c06000396000f3fe60806040526004361061002d5760003560e01c80632d296bf11461003a578063f23a6e61146100565761002e565b5b6100386001610093565b005b610054600480360381019061004f91906101dd565b610093565b005b34801561006257600080fd5b5061007d600480360381019061007891906102cd565b61016e565b60405161008a91906103a2565b60405180910390f35b6000349050600160008381526020019081526020016000205481101580156100cf57506000600160008481526020019081526020016000205414155b6100d857600080fd5b60008054906101000a900473ffffffffffffffffffffffffffffffffffffffff1673ffffffffffffffffffffffffffffffffffffffff1663f242432a30338560016040518563ffffffff1660e01b81526004016101389493929190610457565b600060405180830381600087803b15801561015257600080fd5b505af1158015610166573d6000803e3d6000fd5b505050505050565b60007ff23a6e612e1ff4830e658fe43f4e3cb4a5f8170bd5d9e69fb5d7a7fa9e4fdf9790509695505050505050565b600080fd5b600080fd5b6000819050919050565b6101ba816101a7565b81146101c557600080fd5b50565b6000813590506101d7816101b1565b92915050565b6000602082840312156101f3576101f261019d565b5b6000610201848285016101c8565b91505092915050565b600073ffffffffffffffffffffffffffffffffffffffff82169050919050565b60006102358261020a565b9050919050565b6102458161022a565b811461025057600080fd5b50565b6000813590506102628161023c565b92915050565b600080fd5b600080fd5b600080fd5b60008083601f84011261028d5761028c610268565b5b8235905067ffffffffffffffff8111156102aa576102a961026d565b5b6020830191508360018202830111156102c6576102c5610272565b5b9250929050565b60008060008060008060a087890312156102ea576102e961019d565b5b60006102f889828a01610253565b965050602061030989828a01610253565b955050604061031a89828a016101c8565b945050606061032b89828a016101c8565b935050608087013567ffffffffffffffff81111561034c5761034b6101a2565b5b61035889828a01610277565b92509250509295509295509295565b60007fffffffff0000000000000000000000000000000000000000000000000000000082169050919050565b61039c81610367565b82525050565b60006020820190506103b76000830184610393565b92915050565b6103c68161022a565b82525050565b6103d5816101a7565b82525050565b6000819050919050565b6000819050919050565b600061040a610405610400846103db565b6103e5565b6101a7565b9050919050565b61041a816103ef565b82525050565b600082825260208201905092915050565b50565b6000610441600083610420565b915061044c82610431565b600082019050919050565b600060a08201905061046c60008301876103bd565b61047960208301866103bd565b61048660408301856103cc565b6104936060830184610411565b81810360808301526104a481610434565b90509594505050505056fea26469706673582212207dcf15c836feb30eff3650e90fb2939b476f96f2250ee4fab69e3dff87c461d764736f6c634300080d0033",
  "immutableReferences": {},
  "source": "// SPDX-License-Identifier: MIT\r\npragma solidity >=0.4.22 <0.9.0;\r\n\r\nimport \"../node_modules/@openzeppelin/contracts/token/ERC1155/IERC1155.sol\";\r\n\r\ncontract Marketplace {\r\n    IERC1155 private _token;\r\n\r\n    mapping (uint256 => uint256) price;\r\n\r\n    constructor(IERC1155 token) {\r\n        require(address(token) != address(0));\r\n        _token = token;\r\n        price[1] = 100000000000000;\r\n        price[2] = 200000000000000;\r\n        price[3] = 300000000000000;\r\n    }\r\n\r\n    fallback() external payable{\r\n        buyToken(1);\r\n    }\r\n\r\n    function buyToken(uint256 tokenId) public payable {\r\n        uint256 weiAmount = msg.value;\r\n        //Check for correct amount and correct tokenId\r\n        require(weiAmount >= price[tokenId] && price[tokenId] != 0);\r\n\r\n        _token.safeTransferFrom(address(this), msg.sender, tokenId, 1, \"\");\r\n    }\r\n\r\n    function onERC1155Received(address _operator, address _from, uint256 _id, uint256 _value, bytes calldata _data) external returns(bytes4){\r\n        return bytes4(keccak256(\"onERC1155Received(address,address,uint256,uint256,bytes)\"));\r\n    }\r\n}",
  "sourcePath": "C:\\Users\\Admin\\Webdev\\eth_game\\contracts\\Marketplace.sol",
  "compiler": {
    "name": "solc",
    "version": "0.8.13+commit.abaa5c0e.Emscripten.clang"
  },
  "schemaVersion": "3.4.7",
  "updatedAt": "2022-11-23T16:32:38.174Z",
  "devdoc": {
    "kind": "dev",
    "methods": {},
    "version": 1
  },
  "userdoc": {
    "kind": "user",
    "methods": {},
    "version": 1
  }
}