{
  "contractName": "Marketplace",
  "abi": [
    {
      "inputs": [
        {
          "internalType": "contract IERC1155",
          "name": "tokenAddress",
          "type": "address"
        },
        {
          "internalType": "contract IERC20",
          "name": "coinAddress",
          "type": "address"
        }
      ],
      "stateMutability": "nonpayable",
      "type": "constructor"
    },
    {
      "stateMutability": "payable",
      "type": "fallback",
      "payable": true
    },
    {
      "inputs": [
        {
          "internalType": "address",
          "name": "account",
          "type": "address"
        }
      ],
      "name": "balanceOf",
      "outputs": [
        {
          "internalType": "uint256",
          "name": "",
          "type": "uint256"
        }
      ],
      "stateMutability": "view",
      "type": "function",
      "constant": true
    },
    {
      "inputs": [
        {
          "internalType": "uint256",
          "name": "tokenId",
          "type": "uint256"
        },
        {
          "internalType": "uint256",
          "name": "buyOffer",
          "type": "uint256"
        }
      ],
      "name": "buyToken",
      "outputs": [],
      "stateMutability": "payable",
      "type": "function",
      "payable": true
    },
    {
      "inputs": [
        {
          "internalType": "address",
          "name": "_operator",
          "type": "address"
        },
        {
          "internalType": "address",
          "name": "_from",
          "type": "address"
        },
        {
          "internalType": "uint256",
          "name": "_id",
          "type": "uint256"
        },
        {
          "internalType": "uint256",
          "name": "_value",
          "type": "uint256"
        },
        {
          "internalType": "bytes",
          "name": "_data",
          "type": "bytes"
        }
      ],
      "name": "onERC1155Received",
      "outputs": [
        {
          "internalType": "bytes4",
          "name": "",
          "type": "bytes4"
        }
      ],
      "stateMutability": "nonpayable",
      "type": "function"
    }
  ],
  "bytecode": "0x608060405234801561001057600080fd5b50604051610a96380380610a968339818101604052810190610032919061022d565b600073ffffffffffffffffffffffffffffffffffffffff168273ffffffffffffffffffffffffffffffffffffffff160361006b57600080fd5b600073ffffffffffffffffffffffffffffffffffffffff168173ffffffffffffffffffffffffffffffffffffffff16036100a457600080fd5b816000806101000a81548173ffffffffffffffffffffffffffffffffffffffff021916908373ffffffffffffffffffffffffffffffffffffffff16021790555080600160006101000a81548173ffffffffffffffffffffffffffffffffffffffff021916908373ffffffffffffffffffffffffffffffffffffffff160217905550600a6002600060018152602001908152602001600020819055506014600260006002815260200190815260200160002081905550601e600260006003815260200190815260200160002081905550505061026d565b600080fd5b600073ffffffffffffffffffffffffffffffffffffffff82169050919050565b60006101aa8261017f565b9050919050565b60006101bc8261019f565b9050919050565b6101cc816101b1565b81146101d757600080fd5b50565b6000815190506101e9816101c3565b92915050565b60006101fa8261019f565b9050919050565b61020a816101ef565b811461021557600080fd5b50565b60008151905061022781610201565b92915050565b600080604083850312156102445761024361017a565b5b6000610252858286016101da565b925050602061026385828601610218565b9150509250929050565b61081a8061027c6000396000f3fe6080604052600436106100385760003560e01c8063057466ea1461003b57806370a0823114610057578063f23a6e611461009457610039565b5b005b610055600480360381019061005091906103be565b6100d1565b005b34801561006357600080fd5b5061007e6004803603810190610079919061045c565b610272565b60405161008b9190610498565b60405180910390f35b3480156100a057600080fd5b506100bb60048036038101906100b69190610518565b61034f565b6040516100c891906105ed565b60405180910390f35b6002600083815260200190815260200160002054811015801561010857506000600260008481526020019081526020016000205414155b61011157600080fd5b600260008381526020019081526020016000205461012e33610272565b101561013957600080fd5b600160009054906101000a900473ffffffffffffffffffffffffffffffffffffffff1673ffffffffffffffffffffffffffffffffffffffff166323b872dd3330846040518463ffffffff1660e01b815260040161019893929190610617565b6020604051808303816000875af11580156101b7573d6000803e3d6000fd5b505050506040513d601f19601f820116820180604052508101906101db9190610686565b5060008054906101000a900473ffffffffffffffffffffffffffffffffffffffff1673ffffffffffffffffffffffffffffffffffffffff1663f242432a30338560016040518563ffffffff1660e01b815260040161023c949392919061072f565b600060405180830381600087803b15801561025657600080fd5b505af115801561026a573d6000803e3d6000fd5b505050505050565b60008073ffffffffffffffffffffffffffffffffffffffff168273ffffffffffffffffffffffffffffffffffffffff16036102ac57600080fd5b600160009054906101000a900473ffffffffffffffffffffffffffffffffffffffff1673ffffffffffffffffffffffffffffffffffffffff166370a08231836040518263ffffffff1660e01b81526004016103079190610787565b602060405180830381865afa158015610324573d6000803e3d6000fd5b505050506040513d601f19601f8201168201806040525081019061034891906107b7565b9050919050565b60007ff23a6e612e1ff4830e658fe43f4e3cb4a5f8170bd5d9e69fb5d7a7fa9e4fdf9790509695505050505050565b600080fd5b600080fd5b6000819050919050565b61039b81610388565b81146103a657600080fd5b50565b6000813590506103b881610392565b92915050565b600080604083850312156103d5576103d461037e565b5b60006103e3858286016103a9565b92505060206103f4858286016103a9565b9150509250929050565b600073ffffffffffffffffffffffffffffffffffffffff82169050919050565b6000610429826103fe565b9050919050565b6104398161041e565b811461044457600080fd5b50565b60008135905061045681610430565b92915050565b6000602082840312156104725761047161037e565b5b600061048084828501610447565b91505092915050565b61049281610388565b82525050565b60006020820190506104ad6000830184610489565b92915050565b600080fd5b600080fd5b600080fd5b60008083601f8401126104d8576104d76104b3565b5b8235905067ffffffffffffffff8111156104f5576104f46104b8565b5b602083019150836001820283011115610511576105106104bd565b5b9250929050565b60008060008060008060a087890312156105355761053461037e565b5b600061054389828a01610447565b965050602061055489828a01610447565b955050604061056589828a016103a9565b945050606061057689828a016103a9565b935050608087013567ffffffffffffffff81111561059757610596610383565b5b6105a389828a016104c2565b92509250509295509295509295565b60007fffffffff0000000000000000000000000000000000000000000000000000000082169050919050565b6105e7816105b2565b82525050565b600060208201905061060260008301846105de565b92915050565b6106118161041e565b82525050565b600060608201905061062c6000830186610608565b6106396020830185610608565b6106466040830184610489565b949350505050565b60008115159050919050565b6106638161064e565b811461066e57600080fd5b50565b6000815190506106808161065a565b92915050565b60006020828403121561069c5761069b61037e565b5b60006106aa84828501610671565b91505092915050565b6000819050919050565b6000819050919050565b60006106e26106dd6106d8846106b3565b6106bd565b610388565b9050919050565b6106f2816106c7565b82525050565b600082825260208201905092915050565b50565b60006107196000836106f8565b915061072482610709565b600082019050919050565b600060a0820190506107446000830187610608565b6107516020830186610608565b61075e6040830185610489565b61076b60608301846106e9565b818103608083015261077c8161070c565b905095945050505050565b600060208201905061079c6000830184610608565b92915050565b6000815190506107b181610392565b92915050565b6000602082840312156107cd576107cc61037e565b5b60006107db848285016107a2565b9150509291505056fea2646970667358221220f3d31c51b3647f2b494ed4429d81847a6a63ddc319c6988cdc381a94dc6bac1664736f6c634300080d0033",
  "immutableReferences": {},
  "source": "// SPDX-License-Identifier: MIT\r\npragma solidity >=0.4.22 <0.9.0;\r\n\r\nimport \"../node_modules/@openzeppelin/contracts/token/ERC1155/IERC1155.sol\";\r\nimport \"../node_modules/@openzeppelin/contracts/token/ERC20/IERC20.sol\";\r\n\r\ncontract Marketplace {\r\n    IERC1155 private _token;\r\n    IERC20 private _coin;\r\n\r\n    mapping (uint256 => uint256) price;\r\n\r\n    constructor(IERC1155 tokenAddress, IERC20 coinAddress) {\r\n        require(address(tokenAddress) != address(0));\r\n        require(address(coinAddress) != address(0));\r\n\r\n        _token = tokenAddress;\r\n        _coin = coinAddress;\r\n\r\n        price[1] = 10;\r\n        price[2] = 20;\r\n        price[3] = 30;\r\n    }\r\n\r\n    fallback() external payable{\r\n        \r\n    }\r\n\r\n    function balanceOf(address account) public view returns (uint256) {\r\n        require(account != address(0));\r\n        return _coin.balanceOf(account);\r\n    }\r\n\r\n    function buyToken(uint256 tokenId, uint256 buyOffer) public payable {\r\n        //Check for correct amount and correct tokenId\r\n        require(buyOffer >= price[tokenId] && price[tokenId] != 0);\r\n        require(balanceOf(msg.sender) >= price[tokenId]);\r\n        _coin.transferFrom(msg.sender, address(this), buyOffer);\r\n        _token.safeTransferFrom(address(this), msg.sender, tokenId, 1, \"\");\r\n        \r\n    }\r\n\r\n    function onERC1155Received(address _operator, address _from, uint256 _id, uint256 _value, bytes calldata _data) external returns(bytes4){\r\n        return bytes4(keccak256(\"onERC1155Received(address,address,uint256,uint256,bytes)\"));\r\n    }\r\n}",
  "sourcePath": "C:\\Users\\Admin\\Webdev\\eth_game\\contracts\\Marketplace.sol",
  "compiler": {
    "name": "solc",
    "version": "0.8.13+commit.abaa5c0e.Emscripten.clang"
  },
  "schemaVersion": "3.4.7",
  "updatedAt": "2022-12-15T11:38:31.408Z",
  "networkType": "ethereum",
  "devdoc": {
    "kind": "dev",
    "methods": {},
    "version": 1
  },
  "userdoc": {
    "kind": "user",
    "methods": {},
    "version": 1
  }
}