{
  "contractName": "Marketplace",
  "abi": [
    {
      "inputs": [
        {
          "internalType": "contract IERC1155",
          "name": "tokenAddress",
          "type": "address"
        },
        {
          "internalType": "contract IERC20",
          "name": "coinAddress",
          "type": "address"
        }
      ],
      "stateMutability": "nonpayable",
      "type": "constructor"
    },
    {
      "stateMutability": "payable",
      "type": "fallback",
      "payable": true
    },
    {
      "inputs": [
        {
          "internalType": "address",
          "name": "account",
          "type": "address"
        }
      ],
      "name": "balanceOf",
      "outputs": [
        {
          "internalType": "uint256",
          "name": "",
          "type": "uint256"
        }
      ],
      "stateMutability": "view",
      "type": "function",
      "constant": true
    },
    {
      "inputs": [
        {
          "internalType": "uint256",
          "name": "tokenId",
          "type": "uint256"
        },
        {
          "internalType": "uint256",
          "name": "buyOffer",
          "type": "uint256"
        }
      ],
      "name": "buyToken",
      "outputs": [],
      "stateMutability": "payable",
      "type": "function",
      "payable": true
    },
    {
      "inputs": [
        {
          "internalType": "address",
          "name": "_operator",
          "type": "address"
        },
        {
          "internalType": "address",
          "name": "_from",
          "type": "address"
        },
        {
          "internalType": "uint256",
          "name": "_id",
          "type": "uint256"
        },
        {
          "internalType": "uint256",
          "name": "_value",
          "type": "uint256"
        },
        {
          "internalType": "bytes",
          "name": "_data",
          "type": "bytes"
        }
      ],
      "name": "onERC1155Received",
      "outputs": [
        {
          "internalType": "bytes4",
          "name": "",
          "type": "bytes4"
        }
      ],
      "stateMutability": "nonpayable",
      "type": "function"
    }
  ],
  "bytecode": "0x60806040523480156200001157600080fd5b5060405162000b8038038062000b80833981810160405281019062000037919062000245565b600073ffffffffffffffffffffffffffffffffffffffff168273ffffffffffffffffffffffffffffffffffffffff16036200007157600080fd5b600073ffffffffffffffffffffffffffffffffffffffff168173ffffffffffffffffffffffffffffffffffffffff1603620000ab57600080fd5b816000806101000a81548173ffffffffffffffffffffffffffffffffffffffff021916908373ffffffffffffffffffffffffffffffffffffffff16021790555080600160006101000a81548173ffffffffffffffffffffffffffffffffffffffff021916908373ffffffffffffffffffffffffffffffffffffffff160217905550600a6002600060018152602001908152602001600020819055506014600260006002815260200190815260200160002081905550601e60026000600381526020019081526020016000208190555050506200028c565b600080fd5b600073ffffffffffffffffffffffffffffffffffffffff82169050919050565b6000620001b48262000187565b9050919050565b6000620001c882620001a7565b9050919050565b620001da81620001bb565b8114620001e657600080fd5b50565b600081519050620001fa81620001cf565b92915050565b60006200020d82620001a7565b9050919050565b6200021f8162000200565b81146200022b57600080fd5b50565b6000815190506200023f8162000214565b92915050565b600080604083850312156200025f576200025e62000182565b5b60006200026f85828601620001e9565b925050602062000282858286016200022e565b9150509250929050565b6108e4806200029c6000396000f3fe6080604052600436106100385760003560e01c8063057466ea1461003b57806370a0823114610057578063f23a6e611461009457610039565b5b005b6100556004803603810190610050919061045f565b6100d1565b005b34801561006357600080fd5b5061007e600480360381019061007991906104fd565b610313565b60405161008b9190610539565b60405180910390f35b3480156100a057600080fd5b506100bb60048036038101906100b691906105b9565b6103f0565b6040516100c8919061068e565b60405180910390f35b6002600083815260200190815260200160002054811015801561010857506000600260008481526020019081526020016000205414155b61011157600080fd5b600260008381526020019081526020016000205461012e33610313565b101561013957600080fd5b600160009054906101000a900473ffffffffffffffffffffffffffffffffffffffff1673ffffffffffffffffffffffffffffffffffffffff1663095ea7b330836040518363ffffffff1660e01b81526004016101969291906106b8565b6020604051808303816000875af11580156101b5573d6000803e3d6000fd5b505050506040513d601f19601f820116820180604052508101906101d99190610719565b50600160009054906101000a900473ffffffffffffffffffffffffffffffffffffffff1673ffffffffffffffffffffffffffffffffffffffff166323b872dd3330846040518463ffffffff1660e01b815260040161023993929190610746565b6020604051808303816000875af1158015610258573d6000803e3d6000fd5b505050506040513d601f19601f8201168201806040525081019061027c9190610719565b5060008054906101000a900473ffffffffffffffffffffffffffffffffffffffff1673ffffffffffffffffffffffffffffffffffffffff1663f242432a30338560016040518563ffffffff1660e01b81526004016102dd94939291906107f9565b600060405180830381600087803b1580156102f757600080fd5b505af115801561030b573d6000803e3d6000fd5b505050505050565b60008073ffffffffffffffffffffffffffffffffffffffff168273ffffffffffffffffffffffffffffffffffffffff160361034d57600080fd5b600160009054906101000a900473ffffffffffffffffffffffffffffffffffffffff1673ffffffffffffffffffffffffffffffffffffffff166370a08231836040518263ffffffff1660e01b81526004016103a89190610851565b602060405180830381865afa1580156103c5573d6000803e3d6000fd5b505050506040513d601f19601f820116820180604052508101906103e99190610881565b9050919050565b60007ff23a6e612e1ff4830e658fe43f4e3cb4a5f8170bd5d9e69fb5d7a7fa9e4fdf9790509695505050505050565b600080fd5b600080fd5b6000819050919050565b61043c81610429565b811461044757600080fd5b50565b60008135905061045981610433565b92915050565b600080604083850312156104765761047561041f565b5b60006104848582860161044a565b92505060206104958582860161044a565b9150509250929050565b600073ffffffffffffffffffffffffffffffffffffffff82169050919050565b60006104ca8261049f565b9050919050565b6104da816104bf565b81146104e557600080fd5b50565b6000813590506104f7816104d1565b92915050565b6000602082840312156105135761051261041f565b5b6000610521848285016104e8565b91505092915050565b61053381610429565b82525050565b600060208201905061054e600083018461052a565b92915050565b600080fd5b600080fd5b600080fd5b60008083601f84011261057957610578610554565b5b8235905067ffffffffffffffff81111561059657610595610559565b5b6020830191508360018202830111156105b2576105b161055e565b5b9250929050565b60008060008060008060a087890312156105d6576105d561041f565b5b60006105e489828a016104e8565b96505060206105f589828a016104e8565b955050604061060689828a0161044a565b945050606061061789828a0161044a565b935050608087013567ffffffffffffffff81111561063857610637610424565b5b61064489828a01610563565b92509250509295509295509295565b60007fffffffff0000000000000000000000000000000000000000000000000000000082169050919050565b61068881610653565b82525050565b60006020820190506106a3600083018461067f565b92915050565b6106b2816104bf565b82525050565b60006040820190506106cd60008301856106a9565b6106da602083018461052a565b9392505050565b60008115159050919050565b6106f6816106e1565b811461070157600080fd5b50565b600081519050610713816106ed565b92915050565b60006020828403121561072f5761072e61041f565b5b600061073d84828501610704565b91505092915050565b600060608201905061075b60008301866106a9565b61076860208301856106a9565b610775604083018461052a565b949350505050565b6000819050919050565b6000819050919050565b60006107ac6107a76107a28461077d565b610787565b610429565b9050919050565b6107bc81610791565b82525050565b600082825260208201905092915050565b50565b60006107e36000836107c2565b91506107ee826107d3565b600082019050919050565b600060a08201905061080e60008301876106a9565b61081b60208301866106a9565b610828604083018561052a565b61083560608301846107b3565b8181036080830152610846816107d6565b905095945050505050565b600060208201905061086660008301846106a9565b92915050565b60008151905061087b81610433565b92915050565b6000602082840312156108975761089661041f565b5b60006108a58482850161086c565b9150509291505056fea264697066735822122016b2a4d7a3b70ed67cf5878307e2f8dd9f398eb163b2110c3b45fa2f090f8e5b64736f6c634300080d0033",
  "immutableReferences": {},
  "source": "// SPDX-License-Identifier: MIT\r\npragma solidity >=0.4.22 <0.9.0;\r\n\r\nimport \"../node_modules/@openzeppelin/contracts/token/ERC1155/IERC1155.sol\";\r\nimport \"../node_modules/@openzeppelin/contracts/token/ERC20/IERC20.sol\";\r\n\r\ncontract Marketplace {\r\n    IERC1155 private _token;\r\n    IERC20 private _coin;\r\n\r\n    mapping (uint256 => uint256) price;\r\n\r\n    constructor(IERC1155 tokenAddress, IERC20 coinAddress) {\r\n        require(address(tokenAddress) != address(0));\r\n        require(address(coinAddress) != address(0));\r\n\r\n        _token = tokenAddress;\r\n        _coin = coinAddress;\r\n\r\n        price[1] = 10;\r\n        price[2] = 20;\r\n        price[3] = 30;\r\n    }\r\n\r\n    fallback() external payable{\r\n        \r\n    }\r\n\r\n    function balanceOf(address account) public view returns (uint256) {\r\n        require(account != address(0));\r\n        return _coin.balanceOf(account);\r\n    }\r\n\r\n    function buyToken(uint256 tokenId, uint256 buyOffer) public payable {\r\n        //Check for correct amount and correct tokenId\r\n        require(buyOffer >= price[tokenId] && price[tokenId] != 0);\r\n        require(balanceOf(msg.sender) >= price[tokenId]);\r\n        _coin.approve(address(this), buyOffer);\r\n        _coin.transferFrom(msg.sender, address(this), buyOffer);\r\n        _token.safeTransferFrom(address(this), msg.sender, tokenId, 1, \"\");\r\n        \r\n    }\r\n\r\n    function onERC1155Received(address _operator, address _from, uint256 _id, uint256 _value, bytes calldata _data) external returns(bytes4){\r\n        return bytes4(keccak256(\"onERC1155Received(address,address,uint256,uint256,bytes)\"));\r\n    }\r\n}",
  "sourcePath": "C:\\Users\\Admin\\Webdev\\eth_game\\contracts\\Marketplace.sol",
  "compiler": {
    "name": "solc",
    "version": "0.8.13+commit.abaa5c0e.Emscripten.clang"
  },
  "schemaVersion": "3.4.7",
  "updatedAt": "2022-12-08T13:27:51.720Z",
  "networkType": "ethereum",
  "devdoc": {
    "kind": "dev",
    "methods": {},
    "version": 1
  },
  "userdoc": {
    "kind": "user",
    "methods": {},
    "version": 1
  }
}