{
  "contractName": "Marketplace",
  "abi": [
    {
      "inputs": [
        {
          "internalType": "contract IERC1155",
          "name": "token",
          "type": "address"
        }
      ],
      "stateMutability": "nonpayable",
      "type": "constructor"
    },
    {
      "stateMutability": "payable",
      "type": "fallback",
      "payable": true
    },
    {
      "inputs": [
        {
          "internalType": "uint256",
          "name": "tokenId",
          "type": "uint256"
        },
        {
          "internalType": "uint256",
          "name": "sentWei",
          "type": "uint256"
        }
      ],
      "name": "buyToken",
      "outputs": [],
      "stateMutability": "payable",
      "type": "function",
      "payable": true
    },
    {
      "inputs": [
        {
          "internalType": "address",
          "name": "_operator",
          "type": "address"
        },
        {
          "internalType": "address",
          "name": "_from",
          "type": "address"
        },
        {
          "internalType": "uint256",
          "name": "_id",
          "type": "uint256"
        },
        {
          "internalType": "uint256",
          "name": "_value",
          "type": "uint256"
        },
        {
          "internalType": "bytes",
          "name": "_data",
          "type": "bytes"
        }
      ],
      "name": "onERC1155Received",
      "outputs": [
        {
          "internalType": "bytes4",
          "name": "",
          "type": "bytes4"
        }
      ],
      "stateMutability": "nonpayable",
      "type": "function"
    }
  ],
  "bytecode": "0x608060405234801561001057600080fd5b506040516106c73803806106c783398181016040528101906100329190610184565b600073ffffffffffffffffffffffffffffffffffffffff168173ffffffffffffffffffffffffffffffffffffffff160361006b57600080fd5b806000806101000a81548173ffffffffffffffffffffffffffffffffffffffff021916908373ffffffffffffffffffffffffffffffffffffffff160217905550655af3107a400060016000600181526020019081526020016000208190555065b5e620f48000600160006002815260200190815260200160002081905550660110d9316ec000600160006003815260200190815260200160002081905550506101b1565b600080fd5b600073ffffffffffffffffffffffffffffffffffffffff82169050919050565b600061013f82610114565b9050919050565b600061015182610134565b9050919050565b61016181610146565b811461016c57600080fd5b50565b60008151905061017e81610158565b92915050565b60006020828403121561019a5761019961010f565b5b60006101a88482850161016f565b91505092915050565b610507806101c06000396000f3fe60806040526004361061002d5760003560e01c8063057466ea1461004e578063f23a6e611461006a5761002e565b5b61004c600180600060018152602001908152602001600020546100a7565b005b610068600480360381019061006391906101ec565b6100a7565b005b34801561007657600080fd5b50610091600480360381019061008c91906102ef565b61017d565b60405161009e91906103c4565b60405180910390f35b600160008381526020019081526020016000205481101580156100de57506000600160008481526020019081526020016000205414155b6100e757600080fd5b60008054906101000a900473ffffffffffffffffffffffffffffffffffffffff1673ffffffffffffffffffffffffffffffffffffffff1663f242432a30338560016040518563ffffffff1660e01b81526004016101479493929190610479565b600060405180830381600087803b15801561016157600080fd5b505af1158015610175573d6000803e3d6000fd5b505050505050565b60007ff23a6e612e1ff4830e658fe43f4e3cb4a5f8170bd5d9e69fb5d7a7fa9e4fdf9790509695505050505050565b600080fd5b600080fd5b6000819050919050565b6101c9816101b6565b81146101d457600080fd5b50565b6000813590506101e6816101c0565b92915050565b60008060408385031215610203576102026101ac565b5b6000610211858286016101d7565b9250506020610222858286016101d7565b9150509250929050565b600073ffffffffffffffffffffffffffffffffffffffff82169050919050565b60006102578261022c565b9050919050565b6102678161024c565b811461027257600080fd5b50565b6000813590506102848161025e565b92915050565b600080fd5b600080fd5b600080fd5b60008083601f8401126102af576102ae61028a565b5b8235905067ffffffffffffffff8111156102cc576102cb61028f565b5b6020830191508360018202830111156102e8576102e7610294565b5b9250929050565b60008060008060008060a0878903121561030c5761030b6101ac565b5b600061031a89828a01610275565b965050602061032b89828a01610275565b955050604061033c89828a016101d7565b945050606061034d89828a016101d7565b935050608087013567ffffffffffffffff81111561036e5761036d6101b1565b5b61037a89828a01610299565b92509250509295509295509295565b60007fffffffff0000000000000000000000000000000000000000000000000000000082169050919050565b6103be81610389565b82525050565b60006020820190506103d960008301846103b5565b92915050565b6103e88161024c565b82525050565b6103f7816101b6565b82525050565b6000819050919050565b6000819050919050565b600061042c610427610422846103fd565b610407565b6101b6565b9050919050565b61043c81610411565b82525050565b600082825260208201905092915050565b50565b6000610463600083610442565b915061046e82610453565b600082019050919050565b600060a08201905061048e60008301876103df565b61049b60208301866103df565b6104a860408301856103ee565b6104b56060830184610433565b81810360808301526104c681610456565b90509594505050505056fea2646970667358221220bb1c1f8066865ad4aefe20aece02eefffe26ae846a6f261c403624dc100b515264736f6c634300080d0033",
  "immutableReferences": {},
  "source": "// SPDX-License-Identifier: MIT\r\npragma solidity >=0.4.22 <0.9.0;\r\n\r\nimport \"../node_modules/@openzeppelin/contracts/token/ERC1155/IERC1155.sol\";\r\n\r\ncontract Marketplace {\r\n    IERC1155 private _token;\r\n\r\n    mapping (uint256 => uint256) price;\r\n\r\n    constructor(IERC1155 token) {\r\n        require(address(token) != address(0));\r\n        _token = token;\r\n        price[1] = 100000000000000;\r\n        price[2] = 200000000000000;\r\n        price[3] = 300000000000000;\r\n    }\r\n\r\n    fallback() external payable{\r\n        buyToken(1, price[1]);\r\n    }\r\n\r\n    function buyToken(uint256 tokenId, uint256 sentWei) public payable {\r\n        //Check for correct amount and correct tokenId\r\n        require(sentWei >= price[tokenId] && price[tokenId] != 0);\r\n\r\n        _token.safeTransferFrom(address(this), msg.sender, tokenId, 1, \"\");\r\n    }\r\n\r\n    function onERC1155Received(address _operator, address _from, uint256 _id, uint256 _value, bytes calldata _data) external returns(bytes4){\r\n        return bytes4(keccak256(\"onERC1155Received(address,address,uint256,uint256,bytes)\"));\r\n    }\r\n}",
  "sourcePath": "C:\\Users\\Admin\\Webdev\\eth_game\\contracts\\Marketplace.sol",
  "compiler": {
    "name": "solc",
    "version": "0.8.13+commit.abaa5c0e.Emscripten.clang"
  },
  "schemaVersion": "3.4.7",
  "updatedAt": "2022-11-23T17:46:48.647Z",
  "networkType": "ethereum",
  "devdoc": {
    "kind": "dev",
    "methods": {},
    "version": 1
  },
  "userdoc": {
    "kind": "user",
    "methods": {},
    "version": 1
  }
}